{
  "contractName": "StoryChain",
  "abi": [
    {
      "anonymous": false,
      "inputs": [
        {
          "indexed": false,
          "name": "resp",
          "type": "bool"
        }
      ],
      "name": "newStory",
      "type": "event"
    },
    {
      "anonymous": false,
      "inputs": [
        {
          "indexed": false,
          "name": "resp",
          "type": "bool"
        },
        {
          "indexed": false,
          "name": "currentcontestantindex",
          "type": "uint256"
        }
      ],
      "name": "newChapter",
      "type": "event"
    },
    {
      "anonymous": false,
      "inputs": [
        {
          "indexed": false,
          "name": "resp",
          "type": "bool"
        },
        {
          "indexed": false,
          "name": "currentvotes",
          "type": "uint256"
        }
      ],
      "name": "newVote",
      "type": "event"
    },
    {
      "anonymous": false,
      "inputs": [
        {
          "indexed": false,
          "name": "resp",
          "type": "bool"
        },
        {
          "indexed": false,
          "name": "closedchapterindex",
          "type": "uint256"
        }
      ],
      "name": "closedChapter",
      "type": "event"
    },
    {
      "anonymous": false,
      "inputs": [
        {
          "indexed": false,
          "name": "resp",
          "type": "bool"
        }
      ],
      "name": "closedStory",
      "type": "event"
    },
    {
      "constant": false,
      "inputs": [
        {
          "name": "_contestants",
          "type": "uint256"
        },
        {
          "name": "_maxchapters",
          "type": "uint256"
        },
        {
          "name": "_pricechapter",
          "type": "uint256"
        },
        {
          "name": "_votestowin",
          "type": "uint256"
        },
        {
          "name": "_pricevote",
          "type": "uint256"
        }
      ],
      "name": "createStory",
      "outputs": [],
      "payable": false,
      "stateMutability": "nonpayable",
      "type": "function"
    },
    {
      "constant": false,
      "inputs": [
        {
          "name": "_alias",
          "type": "string"
        },
        {
          "name": "_chaptertext",
          "type": "string"
        },
        {
          "name": "_chaptertitle",
          "type": "string"
        }
      ],
      "name": "addChapter",
      "outputs": [],
      "payable": false,
      "stateMutability": "nonpayable",
      "type": "function"
    },
    {
      "constant": true,
      "inputs": [],
      "name": "checkIfAddChapter",
      "outputs": [
        {
          "name": "",
          "type": "uint256"
        }
      ],
      "payable": false,
      "stateMutability": "view",
      "type": "function"
    },
    {
      "constant": true,
      "inputs": [],
      "name": "checkIfPromoteChapter",
      "outputs": [
        {
          "name": "",
          "type": "uint256"
        }
      ],
      "payable": false,
      "stateMutability": "view",
      "type": "function"
    },
    {
      "constant": true,
      "inputs": [
        {
          "name": "i",
          "type": "uint256"
        }
      ],
      "name": "getContestantChapters",
      "outputs": [
        {
          "name": "",
          "type": "address"
        },
        {
          "name": "",
          "type": "string"
        },
        {
          "name": "",
          "type": "string"
        },
        {
          "name": "",
          "type": "string"
        },
        {
          "name": "",
          "type": "address[]"
        }
      ],
      "payable": false,
      "stateMutability": "view",
      "type": "function"
    },
    {
      "constant": true,
      "inputs": [
        {
          "name": "i",
          "type": "uint256"
        }
      ],
      "name": "getChapters",
      "outputs": [
        {
          "name": "",
          "type": "address"
        },
        {
          "name": "",
          "type": "string"
        },
        {
          "name": "",
          "type": "string"
        },
        {
          "name": "",
          "type": "string"
        },
        {
          "name": "",
          "type": "address[]"
        }
      ],
      "payable": false,
      "stateMutability": "view",
      "type": "function"
    },
    {
      "constant": true,
      "inputs": [],
      "name": "getStory",
      "outputs": [
        {
          "name": "",
          "type": "uint256"
        },
        {
          "name": "",
          "type": "uint256"
        },
        {
          "name": "",
          "type": "uint256"
        },
        {
          "name": "",
          "type": "uint256"
        },
        {
          "name": "",
          "type": "uint256"
        }
      ],
      "payable": false,
      "stateMutability": "view",
      "type": "function"
    },
    {
      "constant": false,
      "inputs": [
        {
          "name": "_index",
          "type": "uint256"
        }
      ],
      "name": "vote",
      "outputs": [],
      "payable": false,
      "stateMutability": "nonpayable",
      "type": "function"
    },
    {
      "constant": false,
      "inputs": [
        {
          "name": "index",
          "type": "uint256"
        }
      ],
      "name": "closeChapter",
      "outputs": [],
      "payable": false,
      "stateMutability": "nonpayable",
      "type": "function"
    }
  ],
  "bytecode": "0x6060604052341561000f57600080fd5b611e078061001e6000396000f300606060405260043610610099576000357c0100000000000000000000000000000000000000000000000000000000900463ffffffff1680630121b93f1461009e57806324a77551146100c1578063301008ee146100ea57806352dc080b1461013157806379c3de3e14610187578063a189ab00146101cc578063ac678a93146101ef578063af1b058d146103de578063c59b9ba114610407575b600080fd5b34156100a957600080fd5b6100bf60048080359060200190919050506105f6565b005b34156100cc57600080fd5b6100d461089f565b6040518082815260200191505060405180910390f35b34156100f557600080fd5b61012f6004808035906020019091908035906020019091908035906020019091908035906020019091908035906020019091905050610934565b005b341561013c57600080fd5b6101856004808035906020019082018035906020019190919290803590602001908201803590602001919091929080359060200190820180359060200191909192905050610cb9565b005b341561019257600080fd5b61019a610e12565b604051808681526020018581526020018481526020018381526020018281526020019550505050505060405180910390f35b34156101d757600080fd5b6101ed6004808035906020019091905050610e39565b005b34156101fa57600080fd5b610210600480803590602001909190505061101d565b604051808673ffffffffffffffffffffffffffffffffffffffff1673ffffffffffffffffffffffffffffffffffffffff16815260200180602001806020018060200180602001858103855289818151815260200191508051906020019080838360005b8381101561028e578082015181840152602081019050610273565b50505050905090810190601f1680156102bb5780820380516001836020036101000a031916815260200191505b50858103845288818151815260200191508051906020019080838360005b838110156102f45780820151818401526020810190506102d9565b50505050905090810190601f1680156103215780820380516001836020036101000a031916815260200191505b50858103835287818151815260200191508051906020019080838360005b8381101561035a57808201518184015260208101905061033f565b50505050905090810190601f1680156103875780820380516001836020036101000a031916815260200191505b50858103825286818151815260200191508051906020019060200280838360005b838110156103c35780820151818401526020810190506103a8565b50505050905001995050505050505050505060405180910390f35b34156103e957600080fd5b6103f161136f565b6040518082815260200191505060405180910390f35b341561041257600080fd5b6104286004808035906020019091905050611405565b604051808673ffffffffffffffffffffffffffffffffffffffff1673ffffffffffffffffffffffffffffffffffffffff16815260200180602001806020018060200180602001858103855289818151815260200191508051906020019080838360005b838110156104a657808201518184015260208101905061048b565b50505050905090810190601f1680156104d35780820380516001836020036101000a031916815260200191505b50858103845288818151815260200191508051906020019080838360005b8381101561050c5780820151818401526020810190506104f1565b50505050905090810190601f1680156105395780820380516001836020036101000a031916815260200191505b50858103835287818151815260200191508051906020019080838360005b83811015610572578082015181840152602081019050610557565b50505050905090810190601f16801561059f5780820380516001836020036101000a031916815260200191505b50858103825286818151815260200191508051906020019060200280838360005b838110156105db5780820151818401526020810190506105c0565b50505050905001995050505050505050505060405180910390f35b600080610601611757565b151561060c57600080fd5b61061583611841565b9150600354821115151561062857600080fd5b3360068481548110151561063857fe5b90600052602060002090600502016004018381548110151561065657fe5b906000526020600020900160006101000a81548173ffffffffffffffffffffffffffffffffffffffff021916908373ffffffffffffffffffffffffffffffffffffffff1602179055507f865e73ff7dfa4530c11e5dc99625510b2f7767690984796ba5e018f6d6d573c160018360405180831515151581526020018281526020019250505060405180910390a160035482141561089a576106f683610e39565b600090505b60068054905081101561089957600060068281548110151561071957fe5b906000526020600020906005020160000160006101000a81548173ffffffffffffffffffffffffffffffffffffffff021916908373ffffffffffffffffffffffffffffffffffffffff160217905550602060405190810160405280600081525060068281548110151561078857fe5b906000526020600020906005020160010190805190602001906107ac92919061190f565b5060206040519081016040528060008152506006828154811015156107cd57fe5b906000526020600020906005020160020190805190602001906107f192919061190f565b50602060405190810160405280600081525060068281548110151561081257fe5b9060005260206000209060050201600301908051906020019061083692919061190f565b506003546040518059106108475750595b908082528060200260200182016040525060068281548110151561086757fe5b9060005260206000209060050201600401908051906020019061088b92919061198f565b5080806001019150506106fb565b5b505050565b600080600090505b6005805490508110156109285760006005828154811015156108c557fe5b906000526020600020906005020160000160009054906101000a900473ffffffffffffffffffffffffffffffffffffffff1673ffffffffffffffffffffffffffffffffffffffff16141561091b57809150610930565b80806001019150506108a7565b600180540191505b5090565b60008560008190555084600181905550836002819055508260038190555081600481905550600090505b84811015610ae7576005805480600101828161097a9190611a19565b9160005260206000209060050201600060a060405190810160405280600073ffffffffffffffffffffffffffffffffffffffff16815260200160206040519081016040528060008152508152602001602060405190810160405280600081525081526020016020604051908101604052806000815250815260200187604051805910610a035750595b9080825280602002602001820160405250815250909190915060008201518160000160006101000a81548173ffffffffffffffffffffffffffffffffffffffff021916908373ffffffffffffffffffffffffffffffffffffffff1602179055506020820151816001019080519060200190610a7f929190611a4b565b506040820151816002019080519060200190610a9c929190611a4b565b506060820151816003019080519060200190610ab9929190611a4b565b506080820151816004019080519060200190610ad6929190611acb565b50505050808060010191505061095e565b600090505b85811015610c755760068054806001018281610b089190611a19565b9160005260206000209060050201600060a060405190810160405280600073ffffffffffffffffffffffffffffffffffffffff16815260200160206040519081016040528060008152508152602001602060405190810160405280600081525081526020016020604051908101604052806000815250815260200187604051805910610b915750595b9080825280602002602001820160405250815250909190915060008201518160000160006101000a81548173ffffffffffffffffffffffffffffffffffffffff021916908373ffffffffffffffffffffffffffffffffffffffff1602179055506020820151816001019080519060200190610c0d929190611a4b565b506040820151816002019080519060200190610c2a929190611a4b565b506060820151816003019080519060200190610c47929190611a4b565b506080820151816004019080519060200190610c64929190611acb565b505050508080600101915050610aec565b7faaa4a01c8ea611b50eec9960689eb4c75b5403ec47a074a6fa1a868e7cf648e56001604051808215151515815260200191505060405180910390a1505050505050565b6000610cc361136f565b90506000548111151515610cd657600080fd5b33600682815481101515610ce657fe5b906000526020600020906005020160000160006101000a81548173ffffffffffffffffffffffffffffffffffffffff021916908373ffffffffffffffffffffffffffffffffffffffff1602179055508686600683815481101515610d4657fe5b90600052602060002090600502016001019190610d64929190611b55565b508484600683815481101515610d7657fe5b90600052602060002090600502016002019190610d94929190611b55565b508282600683815481101515610da657fe5b90600052602060002090600502016003019190610dc4929190611b55565b507f8c58877dbef863e47a62c463de8c0f0f56ba1d9025c811d098c7b3c7a4c93da760018260405180831515151581526020018281526020019250505060405180910390a150505050505050565b60008060008060008054600154600254600354600454945094509450945094509091929394565b6000610e4361089f565b90506001548111151515610e5657600080fd5b33600582815481101515610e6657fe5b906000526020600020906005020160000160006101000a81548173ffffffffffffffffffffffffffffffffffffffff021916908373ffffffffffffffffffffffffffffffffffffffff160217905550600682815481101515610ec457fe5b9060005260206000209060050201600101600582815481101515610ee457fe5b90600052602060002090600502016001019080546001816001161561010002031660029004610f14929190611bd5565b50600682815481101515610f2457fe5b9060005260206000209060050201600301600582815481101515610f4457fe5b90600052602060002090600502016003019080546001816001161561010002031660029004610f74929190611bd5565b50600682815481101515610f8457fe5b9060005260206000209060050201600201600582815481101515610fa457fe5b90600052602060002090600502016002019080546001816001161561010002031660029004610fd4929190611bd5565b507f275a0be750b14847a9cada41fac0ed9fb7f2b6809fa59d6b12dc1ff425413af560018260405180831515151581526020018281526020019250505060405180910390a15050565b6000611027611c5c565b61102f611c5c565b611037611c5c565b61103f611c70565b60058681548110151561104e57fe5b906000526020600020906005020160000160009054906101000a900473ffffffffffffffffffffffffffffffffffffffff1660058781548110151561108f57fe5b90600052602060002090600502016001016005888154811015156110af57fe5b90600052602060002090600502016002016005898154811015156110cf57fe5b906000526020600020906005020160030160058a8154811015156110ef57fe5b9060005260206000209060050201600401838054600181600116156101000203166002900480601f0160208091040260200160405190810160405280929190818152602001828054600181600116156101000203166002900480156111955780601f1061116a57610100808354040283529160200191611195565b820191906000526020600020905b81548152906001019060200180831161117857829003601f168201915b50505050509350828054600181600116156101000203166002900480601f0160208091040260200160405190810160405280929190818152602001828054600181600116156101000203166002900480156112315780601f1061120657610100808354040283529160200191611231565b820191906000526020600020905b81548152906001019060200180831161121457829003601f168201915b50505050509250818054600181600116156101000203166002900480601f0160208091040260200160405190810160405280929190818152602001828054600181600116156101000203166002900480156112cd5780601f106112a2576101008083540402835291602001916112cd565b820191906000526020600020905b8154815290600101906020018083116112b057829003601f168201915b505050505091508080548060200260200160405190810160405280929190818152602001828054801561135557602002820191906000526020600020905b8160009054906101000a900473ffffffffffffffffffffffffffffffffffffffff1673ffffffffffffffffffffffffffffffffffffffff168152602001906001019080831161130b575b505050505090509450945094509450945091939590929450565b600080600090505b6006805490508110156113f857600060068281548110151561139557fe5b906000526020600020906005020160000160009054906101000a900473ffffffffffffffffffffffffffffffffffffffff1673ffffffffffffffffffffffffffffffffffffffff1614156113eb57809150611401565b8080600101915050611377565b60016000540191505b5090565b600061140f611c5c565b611417611c5c565b61141f611c5c565b611427611c70565b60068681548110151561143657fe5b906000526020600020906005020160000160009054906101000a900473ffffffffffffffffffffffffffffffffffffffff1660068781548110151561147757fe5b906000526020600020906005020160010160068881548110151561149757fe5b90600052602060002090600502016002016006898154811015156114b757fe5b906000526020600020906005020160030160068a8154811015156114d757fe5b9060005260206000209060050201600401838054600181600116156101000203166002900480601f01602080910402602001604051908101604052809291908181526020018280546001816001161561010002031660029004801561157d5780601f106115525761010080835404028352916020019161157d565b820191906000526020600020905b81548152906001019060200180831161156057829003601f168201915b50505050509350828054600181600116156101000203166002900480601f0160208091040260200160405190810160405280929190818152602001828054600181600116156101000203166002900480156116195780601f106115ee57610100808354040283529160200191611619565b820191906000526020600020905b8154815290600101906020018083116115fc57829003601f168201915b50505050509250818054600181600116156101000203166002900480601f0160208091040260200160405190810160405280929190818152602001828054600181600116156101000203166002900480156116b55780601f1061168a576101008083540402835291602001916116b5565b820191906000526020600020905b81548152906001019060200180831161169857829003601f168201915b505050505091508080548060200260200160405190810160405280929190818152602001828054801561173d57602002820191906000526020600020905b8160009054906101000a900473ffffffffffffffffffffffffffffffffffffffff1673ffffffffffffffffffffffffffffffffffffffff16815260200190600101908083116116f3575b505050505090509450945094509450945091939590929450565b60008060008091505b60068054905082101561183757600090505b60068281548110151561178157fe5b90600052602060002090600502016004018054905081101561182a5760006006838154811015156117ae57fe5b9060005260206000209060050201600401828154811015156117cc57fe5b906000526020600020900160009054906101000a900473ffffffffffffffffffffffffffffffffffffffff1673ffffffffffffffffffffffffffffffffffffffff16141561181d576001925061183c565b8080600101915050611772565b8180600101925050611760565b600092505b505090565b600080600090505b60068381548110151561185857fe5b90600052602060002090600502016004018054905081101561190057600060068481548110151561188557fe5b9060005260206000209060050201600401828154811015156118a357fe5b906000526020600020900160009054906101000a900473ffffffffffffffffffffffffffffffffffffffff1673ffffffffffffffffffffffffffffffffffffffff1614156118f357809150611909565b8080600101915050611849565b60016003540191505b50919050565b828054600181600116156101000203166002900490600052602060002090601f016020900481019282601f1061195057805160ff191683800117855561197e565b8280016001018555821561197e579182015b8281111561197d578251825591602001919060010190611962565b5b50905061198b9190611c84565b5090565b828054828255906000526020600020908101928215611a08579160200282015b82811115611a075782518260006101000a81548173ffffffffffffffffffffffffffffffffffffffff021916908373ffffffffffffffffffffffffffffffffffffffff160217905550916020019190600101906119af565b5b509050611a159190611ca9565b5090565b815481835581811511611a4657600502816005028360005260206000209182019101611a459190611cec565b5b505050565b828054600181600116156101000203166002900490600052602060002090601f016020900481019282601f10611a8c57805160ff1916838001178555611aba565b82800160010185558215611aba579182015b82811115611ab9578251825591602001919060010190611a9e565b5b509050611ac79190611c84565b5090565b828054828255906000526020600020908101928215611b44579160200282015b82811115611b435782518260006101000a81548173ffffffffffffffffffffffffffffffffffffffff021916908373ffffffffffffffffffffffffffffffffffffffff16021790555091602001919060010190611aeb565b5b509050611b519190611ca9565b5090565b828054600181600116156101000203166002900490600052602060002090601f016020900481019282601f10611b9657803560ff1916838001178555611bc4565b82800160010185558215611bc4579182015b82811115611bc3578235825591602001919060010190611ba8565b5b509050611bd19190611c84565b5090565b828054600181600116156101000203166002900490600052602060002090601f016020900481019282601f10611c0e5780548555611c4b565b82800160010185558215611c4b57600052602060002091601f016020900482015b82811115611c4a578254825591600101919060010190611c2f565b5b509050611c589190611c84565b5090565b602060405190810160405280600081525090565b602060405190810160405280600081525090565b611ca691905b80821115611ca2576000816000905550600101611c8a565b5090565b90565b611ce991905b80821115611ce557600081816101000a81549073ffffffffffffffffffffffffffffffffffffffff021916905550600101611caf565b5090565b90565b611d6f91905b80821115611d6b57600080820160006101000a81549073ffffffffffffffffffffffffffffffffffffffff0219169055600182016000611d329190611d72565b600282016000611d429190611d72565b600382016000611d529190611d72565b600482016000611d629190611dba565b50600501611cf2565b5090565b90565b50805460018160011615610100020316600290046000825580601f10611d985750611db7565b601f016020900490600052602060002090810190611db69190611c84565b5b50565b5080546000825590600052602060002090810190611dd89190611c84565b505600a165627a7a7230582025419ffbd04bdbb286a890ec49d4fc456fb4b2e77410a997ed94a42c6dacc51e0029",
  "source": "pragma solidity ^0.4.18;\n\ncontract StoryChain {\n  //type definition\n\n  struct Chapter{\n    address author;\n    string alias;\n    string chaptertext;\n    string chaptertitle;\n    address[] votes;\n  }\n\n\n  uint contestants; //OPCIONAL\n  uint maxchapters; //OPCIONAL\n  uint pricechapter;\n  uint votestowin;\n  uint pricevote;\n  Chapter[] chapters;\n  Chapter[] contestantchapters;\n\n\n\n\n  //state variables\n  //events\n  //historia añadida\n  event newStory(bool resp);\n  //Capitulo añadido\n  event newChapter(bool resp, uint currentcontestantindex); //indice del nuevo añadido\n  //Voto añadido\n  event newVote(bool resp, uint currentvotes);\n  //Capitulo cerrado\n  event closedChapter(bool resp, uint closedchapterindex);\n  //Historia cerrada\n  event closedStory(bool resp);\n\n  //Modificadores\n  modifier addChapterMod() {\n    require(checkIfAddChapter()<=contestants);\n    _;\n  }\n  modifier addVoteMod() {\n    require(checkIfCanVote());\n    _;\n  }\n\n  //-----------------------HISTORIAS Y CAPITULOS\n  // create a new Story TODO: Ownable OJO: MACHACAS LA ANTERIOR\n  function createStory(uint _contestants, uint _maxchapters, uint _pricechapter,uint _votestowin, uint _pricevote) external {\n    //Chapter memory _defaultChapter = Chapter(0x0,\"\",\"\",new address[_votestowin](0));\n    contestants = _contestants;\n    maxchapters = _maxchapters;\n    pricechapter = _pricechapter;\n    votestowin = _votestowin;\n    pricevote = _pricevote;\n\n    for(uint i = 0; i<_maxchapters; i++){\n      chapters.push(Chapter(0x0,\"\",\"\",\"\",new address[](_votestowin)));\n    }\n\n    for(i = 0; i<_contestants; i++){\n      contestantchapters.push(Chapter(0x0,\"\",\"\",\"\",new address[](_votestowin)));\n    }\n    newStory(true);\n  }\n  // add a chapter TODO: deposit TODO: PRECONDICION comprobar el numero de capitulos; TODO: EVENTO\n  function addChapter(string _alias, string _chaptertext, string _chaptertitle) external {\n      //comprobacion ojocuidao concurrencia (modificador)\n      //Bucar el primer capitulo nulo\n      //Si no hay se cancela ()\n      //Lanzaria evento capitulo añadido\n      uint index = checkIfAddChapter();\n      require(index<=contestants);\n      contestantchapters[index].author = msg.sender;\n      contestantchapters[index].alias = _alias;\n      contestantchapters[index].chaptertext = _chaptertext;\n      contestantchapters[index].chaptertitle = _chaptertitle;\n\n      newChapter(true,index);\n  }\n  // comprobar si se puede subir un capitulo\n  function checkIfAddChapter() public view returns(uint) {\n    for (uint i=0;i<contestantchapters.length ;i++){\n      if(contestantchapters[i].author == 0x0){\n        return i;\n      }\n    }\n    return contestants+1;\n  }\n  function checkIfPromoteChapter() public view returns(uint) {\n    for (uint i=0;i<chapters.length ;i++){\n      if(chapters[i].author == 0x0){\n        return i;\n      }\n    }\n    return maxchapters+1;\n  }\n  //GetStory()\n  function getContestantChapters(uint i) public view returns(address,string,string,string,address[]){\n    return (contestantchapters[i].author,contestantchapters[i].alias,contestantchapters[i].chaptertext,contestantchapters[i].chaptertitle,contestantchapters[i].votes);\n  }\n  function getChapters(uint i) public view returns(address,string,string,string,address[]){\n    return (chapters[i].author,chapters[i].alias,chapters[i].chaptertext,chapters[i].chaptertitle,chapters[i].votes);\n  }\n  function getStory() public view returns(uint,uint,uint,uint,uint) {\n    return(contestants,maxchapters,pricechapter,votestowin,pricevote);\n  }\n\n  //------------------VOTOS\n  //votar TODO: deposit PRECONDICION comprobar el numero de capitulos; TODO: EVENTO\n  function vote(uint _index) external {\n    //Lanzaria evento voto añadido\n    //comprobacion ojocuidao concurrencia (modificador)\n    //Bucar el primer capitulo nulo\n    //Si no hay se cancela ()\n    //Si es el voto nº maxvote del capitulo, lo cierra\n    require(checkIfCanVote());\n    uint indextovote = checkIfCanVoteChapter(_index);\n    require(indextovote<=votestowin);\n    contestantchapters[_index].votes[indextovote] = msg.sender;\n    newVote(true,indextovote);\n    if (indextovote==votestowin){\n      closeChapter(_index);\n      for(uint i = 0; i<contestantchapters.length; i++){\n        contestantchapters[i].author = 0x0;\n        contestantchapters[i].alias = \"\";\n        contestantchapters[i].chaptertext = \"\";\n        contestantchapters[i].chaptertitle = \"\";\n        contestantchapters[i].votes = new address[](votestowin);\n      }\n    }\n  }\n\n\n  //comprobar votos (nº votes no nulos)\n  // comprobar si se puede votar un capitulo\n  function checkIfCanVoteChapter(uint index) internal returns(uint) {\n      for (uint j=0;j<contestantchapters[index].votes.length; j++)\n        if( contestantchapters[index].votes[j] == 0x0){\n          return j;\n      }\n    return votestowin+1;\n  }\n\n  function checkIfCanVote() internal returns(bool) {\n    for (uint i=0;i<contestantchapters.length ;i++){\n      for (uint j=0;j<contestantchapters[i].votes.length; j++)\n        if( contestantchapters[i].votes[j] == 0x0){\n          return true;\n      }\n    }\n    return false;\n  }\n  //cerrar un capitulo TODO: deposit\n  function closeChapter(uint index) public {\n    uint insert = checkIfPromoteChapter();\n    require(insert<=maxchapters);\n    chapters[insert].author = msg.sender;\n    chapters[insert].alias = contestantchapters[index].alias;\n    chapters[insert].chaptertitle = contestantchapters[index].chaptertitle;\n    chapters[insert].chaptertext = contestantchapters[index].chaptertext;\n    closedChapter(true, insert);\n\n  }\n\n}\n",
  "sourcePath": "/home/gonzalo/StoryChange/storychange/contracts/StoryChain.sol",
  "compiler": {
    "name": "solc",
    "version": "0.4.19+commit.c4cbbb05.Emscripten.clang"
  },
  "schemaVersion": "2.0.0",
  "updatedAt": "2018-03-03T17:52:35.838Z"
}