{
  "contractName": "StoryChain",
  "abi": [
    {
      "anonymous": false,
      "inputs": [
        {
          "indexed": false,
          "name": "resp",
          "type": "bool"
        }
      ],
      "name": "newStory",
      "type": "event"
    },
    {
      "anonymous": false,
      "inputs": [
        {
          "indexed": false,
          "name": "resp",
          "type": "bool"
        },
        {
          "indexed": false,
          "name": "currentcontestantindex",
          "type": "uint256"
        }
      ],
      "name": "newChapter",
      "type": "event"
    },
    {
      "anonymous": false,
      "inputs": [
        {
          "indexed": false,
          "name": "resp",
          "type": "bool"
        },
        {
          "indexed": false,
          "name": "currentvotes",
          "type": "uint256"
        }
      ],
      "name": "newVote",
      "type": "event"
    },
    {
      "anonymous": false,
      "inputs": [
        {
          "indexed": false,
          "name": "resp",
          "type": "bool"
        },
        {
          "indexed": false,
          "name": "closedchapterindex",
          "type": "uint256"
        }
      ],
      "name": "closedChapter",
      "type": "event"
    },
    {
      "anonymous": false,
      "inputs": [
        {
          "indexed": false,
          "name": "resp",
          "type": "bool"
        }
      ],
      "name": "closedStory",
      "type": "event"
    },
    {
      "constant": false,
      "inputs": [
        {
          "name": "_contestants",
          "type": "uint256"
        },
        {
          "name": "_maxchapters",
          "type": "uint256"
        },
        {
          "name": "_pricechapter",
          "type": "uint256"
        },
        {
          "name": "_votestowin",
          "type": "uint256"
        },
        {
          "name": "_pricevote",
          "type": "uint256"
        }
      ],
      "name": "createStory",
      "outputs": [],
      "payable": false,
      "stateMutability": "nonpayable",
      "type": "function"
    },
    {
      "constant": false,
      "inputs": [
        {
          "name": "_alias",
          "type": "string"
        },
        {
          "name": "_chaptertext",
          "type": "string"
        }
      ],
      "name": "addChapter",
      "outputs": [],
      "payable": false,
      "stateMutability": "nonpayable",
      "type": "function"
    },
    {
      "constant": true,
      "inputs": [],
      "name": "checkIfAddChapter",
      "outputs": [
        {
          "name": "",
          "type": "uint256"
        }
      ],
      "payable": false,
      "stateMutability": "view",
      "type": "function"
    },
    {
      "constant": true,
      "inputs": [],
      "name": "checkIfPromoteChapter",
      "outputs": [
        {
          "name": "",
          "type": "uint256"
        }
      ],
      "payable": false,
      "stateMutability": "view",
      "type": "function"
    },
    {
      "constant": true,
      "inputs": [
        {
          "name": "i",
          "type": "uint256"
        }
      ],
      "name": "getContestantChapters",
      "outputs": [
        {
          "name": "",
          "type": "address"
        },
        {
          "name": "",
          "type": "string"
        },
        {
          "name": "",
          "type": "string"
        },
        {
          "name": "",
          "type": "address[]"
        }
      ],
      "payable": false,
      "stateMutability": "view",
      "type": "function"
    },
    {
      "constant": true,
      "inputs": [
        {
          "name": "i",
          "type": "uint256"
        }
      ],
      "name": "getChapters",
      "outputs": [
        {
          "name": "",
          "type": "address"
        },
        {
          "name": "",
          "type": "string"
        },
        {
          "name": "",
          "type": "string"
        },
        {
          "name": "",
          "type": "address[]"
        }
      ],
      "payable": false,
      "stateMutability": "view",
      "type": "function"
    },
    {
      "constant": true,
      "inputs": [],
      "name": "getStory",
      "outputs": [
        {
          "name": "",
          "type": "uint256"
        },
        {
          "name": "",
          "type": "uint256"
        },
        {
          "name": "",
          "type": "uint256"
        },
        {
          "name": "",
          "type": "uint256"
        },
        {
          "name": "",
          "type": "uint256"
        }
      ],
      "payable": false,
      "stateMutability": "view",
      "type": "function"
    },
    {
      "constant": false,
      "inputs": [
        {
          "name": "_index",
          "type": "uint256"
        }
      ],
      "name": "vote",
      "outputs": [],
      "payable": false,
      "stateMutability": "nonpayable",
      "type": "function"
    },
    {
      "constant": false,
      "inputs": [
        {
          "name": "index",
          "type": "uint256"
        }
      ],
      "name": "closeChapter",
      "outputs": [],
      "payable": false,
      "stateMutability": "nonpayable",
      "type": "function"
    }
  ],
  "bytecode": "0x6060604052341561000f57600080fd5b6114958061001e6000396000f300606060405260043610610099576000357c0100000000000000000000000000000000000000000000000000000000900463ffffffff1680630121b93f1461009e57806324a77551146100c1578063301008ee146100ea57806379c3de3e14610131578063a189ab0014610176578063a2c7f59514610199578063ac678a93146101db578063af1b058d1461035e578063c59b9ba114610387575b600080fd5b34156100a957600080fd5b6100bf600480803590602001909190505061050a565b005b34156100cc57600080fd5b6100d461050d565b6040518082815260200191505060405180910390f35b34156100f557600080fd5b61012f60048080359060200190919080359060200190919080359060200190919080359060200190919080359060200190919050506105a2565b005b341561013c57600080fd5b6101446108c3565b604051808681526020018581526020018481526020018381526020018281526020019550505050505060405180910390f35b341561018157600080fd5b61019760048080359060200190919050506108ea565b005b34156101a457600080fd5b6101d9600480803590602001908201803590602001919091929080359060200190820180359060200191909192905050610a2a565b005b34156101e657600080fd5b6101fc6004808035906020019091905050610b0d565b604051808573ffffffffffffffffffffffffffffffffffffffff1673ffffffffffffffffffffffffffffffffffffffff168152602001806020018060200180602001848103845287818151815260200191508051906020019080838360005b8381101561027657808201518184015260208101905061025b565b50505050905090810190601f1680156102a35780820380516001836020036101000a031916815260200191505b50848103835286818151815260200191508051906020019080838360005b838110156102dc5780820151818401526020810190506102c1565b50505050905090810190601f1680156103095780820380516001836020036101000a031916815260200191505b50848103825285818151815260200191508051906020019060200280838360005b8381101561034557808201518184015260208101905061032a565b5050505090500197505050505050505060405180910390f35b341561036957600080fd5b610371610d97565b6040518082815260200191505060405180910390f35b341561039257600080fd5b6103a86004808035906020019091905050610e2d565b604051808573ffffffffffffffffffffffffffffffffffffffff1673ffffffffffffffffffffffffffffffffffffffff168152602001806020018060200180602001848103845287818151815260200191508051906020019080838360005b83811015610422578082015181840152602081019050610407565b50505050905090810190601f16801561044f5780820380516001836020036101000a031916815260200191505b50848103835286818151815260200191508051906020019080838360005b8381101561048857808201518184015260208101905061046d565b50505050905090810190601f1680156104b55780820380516001836020036101000a031916815260200191505b50848103825285818151815260200191508051906020019060200280838360005b838110156104f15780820151818401526020810190506104d6565b5050505090500197505050505050505060405180910390f35b50565b600080600090505b60058054905081101561059657600060058281548110151561053357fe5b906000526020600020906004020160000160009054906101000a900473ffffffffffffffffffffffffffffffffffffffff1673ffffffffffffffffffffffffffffffffffffffff1614156105895780915061059e565b8080600101915050610515565b600180540191505b5090565b6000808660008190555085600181905550846002819055508360038190555082600481905550600091505b8582101561072357600580548060010182816105e991906110b7565b91600052602060002090600402016000608060405190810160405280600073ffffffffffffffffffffffffffffffffffffffff16815260200160206040519081016040528060008152508152602001602060405190810160405280600081525081526020018860405180591061065c5750595b9080825280602002602001820160405250815250909190915060008201518160000160006101000a81548173ffffffffffffffffffffffffffffffffffffffff021916908373ffffffffffffffffffffffffffffffffffffffff16021790555060208201518160010190805190602001906106d89291906110e9565b5060408201518160020190805190602001906106f59291906110e9565b506060820151816003019080519060200190610712929190611169565b5050505081806001019250506105cd565b600091505b8682101561087e576006805480600101828161074491906110b7565b91600052602060002090600402016000608060405190810160405280600073ffffffffffffffffffffffffffffffffffffffff1681526020016020604051908101604052806000815250815260200160206040519081016040528060008152508152602001886040518059106107b75750595b9080825280602002602001820160405250815250909190915060008201518160000160006101000a81548173ffffffffffffffffffffffffffffffffffffffff021916908373ffffffffffffffffffffffffffffffffffffffff16021790555060208201518160010190805190602001906108339291906110e9565b5060408201518160020190805190602001906108509291906110e9565b50606082015181600301908051906020019061086d929190611169565b505050508180600101925050610728565b7faaa4a01c8ea611b50eec9960689eb4c75b5403ec47a074a6fa1a868e7cf648e56001604051808215151515815260200191505060405180910390a150505050505050565b60008060008060008054600154600254600354600454945094509450945094509091929394565b60006108f461050d565b9050600154811115151561090757600080fd5b3360058281548110151561091757fe5b906000526020600020906004020160000160006101000a81548173ffffffffffffffffffffffffffffffffffffffff021916908373ffffffffffffffffffffffffffffffffffffffff16021790555060068281548110151561097557fe5b906000526020600020906004020160010160058281548110151561099557fe5b906000526020600020906004020160010190805460018160011615610100020316600290046109c59291906111f3565b506006828154811015156109d557fe5b90600052602060002090600402016002016005828154811015156109f557fe5b90600052602060002090600402016002019080546001816001161561010002031660029004610a259291906111f3565b505050565b6000610a34610d97565b90506000548111151515610a4757600080fd5b33600682815481101515610a5757fe5b906000526020600020906004020160000160006101000a81548173ffffffffffffffffffffffffffffffffffffffff021916908373ffffffffffffffffffffffffffffffffffffffff1602179055508484600683815481101515610ab757fe5b90600052602060002090600402016001019190610ad592919061127a565b508282600683815481101515610ae757fe5b90600052602060002090600402016002019190610b0592919061127a565b505050505050565b6000610b176112fa565b610b1f6112fa565b610b2761130e565b600585815481101515610b3657fe5b906000526020600020906004020160000160009054906101000a900473ffffffffffffffffffffffffffffffffffffffff16600586815481101515610b7757fe5b9060005260206000209060040201600101600587815481101515610b9757fe5b9060005260206000209060040201600201600588815481101515610bb757fe5b9060005260206000209060040201600301828054600181600116156101000203166002900480601f016020809104026020016040519081016040528092919081815260200182805460018160011615610100020316600290048015610c5d5780601f10610c3257610100808354040283529160200191610c5d565b820191906000526020600020905b815481529060010190602001808311610c4057829003601f168201915b50505050509250818054600181600116156101000203166002900480601f016020809104026020016040519081016040528092919081815260200182805460018160011615610100020316600290048015610cf95780601f10610cce57610100808354040283529160200191610cf9565b820191906000526020600020905b815481529060010190602001808311610cdc57829003601f168201915b5050505050915080805480602002602001604051908101604052809291908181526020018280548015610d8157602002820191906000526020600020905b8160009054906101000a900473ffffffffffffffffffffffffffffffffffffffff1673ffffffffffffffffffffffffffffffffffffffff1681526020019060010190808311610d37575b5050505050905093509350935093509193509193565b600080600090505b600680549050811015610e20576000600682815481101515610dbd57fe5b906000526020600020906004020160000160009054906101000a900473ffffffffffffffffffffffffffffffffffffffff1673ffffffffffffffffffffffffffffffffffffffff161415610e1357809150610e29565b8080600101915050610d9f565b60016000540191505b5090565b6000610e376112fa565b610e3f6112fa565b610e4761130e565b600685815481101515610e5657fe5b906000526020600020906004020160000160009054906101000a900473ffffffffffffffffffffffffffffffffffffffff16600686815481101515610e9757fe5b9060005260206000209060040201600101600687815481101515610eb757fe5b9060005260206000209060040201600201600688815481101515610ed757fe5b9060005260206000209060040201600301828054600181600116156101000203166002900480601f016020809104026020016040519081016040528092919081815260200182805460018160011615610100020316600290048015610f7d5780601f10610f5257610100808354040283529160200191610f7d565b820191906000526020600020905b815481529060010190602001808311610f6057829003601f168201915b50505050509250818054600181600116156101000203166002900480601f0160208091040260200160405190810160405280929190818152602001828054600181600116156101000203166002900480156110195780601f10610fee57610100808354040283529160200191611019565b820191906000526020600020905b815481529060010190602001808311610ffc57829003601f168201915b50505050509150808054806020026020016040519081016040528092919081815260200182805480156110a157602002820191906000526020600020905b8160009054906101000a900473ffffffffffffffffffffffffffffffffffffffff1673ffffffffffffffffffffffffffffffffffffffff1681526020019060010190808311611057575b5050505050905093509350935093509193509193565b8154818355818115116110e4576004028160040283600052602060002091820191016110e39190611322565b5b505050565b828054600181600116156101000203166002900490600052602060002090601f016020900481019282601f1061112a57805160ff1916838001178555611158565b82800160010185558215611158579182015b8281111561115757825182559160200191906001019061113c565b5b5090506111659190611398565b5090565b8280548282559060005260206000209081019282156111e2579160200282015b828111156111e15782518260006101000a81548173ffffffffffffffffffffffffffffffffffffffff021916908373ffffffffffffffffffffffffffffffffffffffff16021790555091602001919060010190611189565b5b5090506111ef91906113bd565b5090565b828054600181600116156101000203166002900490600052602060002090601f016020900481019282601f1061122c5780548555611269565b8280016001018555821561126957600052602060002091601f016020900482015b8281111561126857825482559160010191906001019061124d565b5b5090506112769190611398565b5090565b828054600181600116156101000203166002900490600052602060002090601f016020900481019282601f106112bb57803560ff19168380011785556112e9565b828001600101855582156112e9579182015b828111156112e85782358255916020019190600101906112cd565b5b5090506112f69190611398565b5090565b602060405190810160405280600081525090565b602060405190810160405280600081525090565b61139591905b8082111561139157600080820160006101000a81549073ffffffffffffffffffffffffffffffffffffffff02191690556001820160006113689190611400565b6002820160006113789190611400565b6003820160006113889190611448565b50600401611328565b5090565b90565b6113ba91905b808211156113b657600081600090555060010161139e565b5090565b90565b6113fd91905b808211156113f957600081816101000a81549073ffffffffffffffffffffffffffffffffffffffff0219169055506001016113c3565b5090565b90565b50805460018160011615610100020316600290046000825580601f106114265750611445565b601f0160209004906000526020600020908101906114449190611398565b5b50565b50805460008255906000526020600020908101906114669190611398565b505600a165627a7a72305820d72795efb03f3b05d71a30035955c78440298f707cec75a7fa03328e96d4325c0029",
  "source": "pragma solidity ^0.4.18;\n\ncontract StoryChain {\n  //type definition\n\n  struct Chapter{\n    address author;\n    string alias;\n    string chaptertext;\n    address[] votes;\n  }\n\n\n  uint contestants; //OPCIONAL\n  uint maxchapters; //OPCIONAL\n  uint pricechapter;\n  uint votestowin;\n  uint pricevote;\n  Chapter[] chapters;\n  Chapter[] contestantchapters;\n\n\n\n\n  //state variables\n  //events\n  //historia añadida\n  event newStory(bool resp);\n  //Capitulo añadido\n  event newChapter(bool resp, uint currentcontestantindex); //indice del nuevo añadido\n  //Voto añadido\n  event newVote(bool resp, uint currentvotes);\n  //Capitulo cerrado\n  event closedChapter(bool resp, uint closedchapterindex);\n  //Historia cerrada\n  event closedStory(bool resp);\n\n  //Modificadores\n  modifier addChapterMod() {\n    require(checkIfAddChapter()<=contestants);\n    _;\n  }\n  modifier addVoteMod() {\n    require(checkIfCanVote());\n    _;\n  }\n\n  //-----------------------HISTORIAS Y CAPITULOS\n  // create a new Story TODO: Ownable OJO: MACHACAS LA ANTERIOR\n  function createStory(uint _contestants, uint _maxchapters, uint _pricechapter,uint _votestowin, uint _pricevote) external {\n    //Chapter memory _defaultChapter = Chapter(0x0,\"\",\"\",new address[_votestowin](0));\n    contestants = _contestants;\n    maxchapters = _maxchapters;\n    pricechapter = _pricechapter;\n    votestowin = _votestowin;\n    pricevote = _pricevote;\n\n    for(uint i = 0; i<_maxchapters; i++){\n      chapters.push(Chapter(0x0,\"\",\"\",new address[](_votestowin)));\n    }\n\n    Chapter[] storage initialcontestantchapters;\n    for(i = 0; i<_contestants; i++){\n      contestantchapters.push(Chapter(0x0,\"\",\"\",new address[](_votestowin)));\n    }\n    newStory(true);\n  }\n  // add a chapter TODO: deposit TODO: PRECONDICION comprobar el numero de capitulos; TODO: EVENTO\n  function addChapter(string _alias, string _chaptertext) external {\n      //comprobacion ojocuidao concurrencia (modificador)\n      //Bucar el primer capitulo nulo\n      //Si no hay se cancela ()\n      //Lanzaria evento capitulo añadido\n      uint index = checkIfAddChapter();\n      require(index<=contestants);\n      contestantchapters[index].author = msg.sender;\n      contestantchapters[index].alias = _alias;\n      contestantchapters[index].chaptertext = _chaptertext;\n  }\n  // comprobar si se puede subir un capitulo\n  function checkIfAddChapter() public view returns(uint) {\n    for (uint i=0;i<contestantchapters.length ;i++){\n      if(contestantchapters[i].author == 0x0){\n        return i;\n      }\n    }\n    return contestants+1;\n  }\n  function checkIfPromoteChapter() public view returns(uint) {\n    for (uint i=0;i<chapters.length ;i++){\n      if(chapters[i].author == 0x0){\n        return i;\n      }\n    }\n    return maxchapters+1;\n  }\n  //GetStory()\n  function getContestantChapters(uint i) public view returns(address,string,string,address[]){\n    return (contestantchapters[i].author,contestantchapters[i].alias,contestantchapters[i].chaptertext,contestantchapters[i].votes);\n  }\n  function getChapters(uint i) public view returns(address,string,string,address[]){\n    return (chapters[i].author,chapters[i].alias,chapters[i].chaptertext,chapters[i].votes);\n  }\n  function getStory() public view returns(uint,uint,uint,uint,uint) {\n    return(contestants,maxchapters,pricechapter,votestowin,pricevote);\n  }\n\n  //------------------VOTOS\n  //votar TODO: deposit PRECONDICION comprobar el numero de capitulos; TODO: EVENTO\n  function vote(uint _index) external {\n    //Lanzaria evento voto añadido\n    //comprobacion ojocuidao concurrencia (modificador)\n    //Bucar el primer capitulo nulo\n    //Si no hay se cancela ()\n  }\n\n\n  //comprobar votos (nº votes no nulos)\n  // comprobar si se puede votar un capitulo\n  function checkIfCanVote() internal returns(bool) {\n    for (uint i=0;i<contestantchapters.length ;i++){\n      for (uint j=0;j<contestantchapters[i].votes.length; j++)\n        if( contestantchapters[i].votes[j] == 0x0){\n          return true;\n      }\n    }\n    return false;\n  }\n  //cerrar un capitulo TODO: deposit\n  function closeChapter(uint index) public {\n    uint insert = checkIfPromoteChapter();\n    require(insert<=maxchapters);\n    chapters[insert].author = msg.sender;\n    chapters[insert].alias = contestantchapters[index].alias;\n    chapters[insert].chaptertext = contestantchapters[index].chaptertext;\n  }\n\n}\n",
  "sourcePath": "/home/gonzalo/StoryChange/storychange/contracts/StoryChain.sol",
  "compiler": {
    "name": "solc",
    "version": "0.4.19+commit.c4cbbb05.Emscripten.clang"
  },
  "schemaVersion": "2.0.0",
  "updatedAt": "2018-03-03T16:54:07.453Z"
}